{
  "contractName": "DisciplineContract",
  "abi": [
    {
      "inputs": [
        {
          "internalType": "bytes32",
          "name": "",
          "type": "bytes32"
        }
      ],
      "name": "disciplines",
      "outputs": [
        {
          "internalType": "string",
          "name": "programName",
          "type": "string"
        },
        {
          "internalType": "string",
          "name": "hour",
          "type": "string"
        },
        {
          "internalType": "uint256",
          "name": "credits",
          "type": "uint256"
        },
        {
          "internalType": "string",
          "name": "name",
          "type": "string"
        },
        {
          "internalType": "string",
          "name": "assessmentForm",
          "type": "string"
        },
        {
          "internalType": "uint256",
          "name": "semester",
          "type": "uint256"
        }
      ],
      "stateMutability": "view",
      "type": "function",
      "constant": true
    },
    {
      "inputs": [
        {
          "internalType": "string",
          "name": "_programName",
          "type": "string"
        },
        {
          "internalType": "string",
          "name": "_hour",
          "type": "string"
        },
        {
          "internalType": "uint256",
          "name": "_credits",
          "type": "uint256"
        },
        {
          "internalType": "string",
          "name": "_name",
          "type": "string"
        },
        {
          "internalType": "string",
          "name": "_assessmentForm",
          "type": "string"
        },
        {
          "internalType": "uint256",
          "name": "_semester",
          "type": "uint256"
        }
      ],
      "name": "addDiscipline",
      "outputs": [],
      "stateMutability": "nonpayable",
      "type": "function"
    },
    {
      "inputs": [
        {
          "internalType": "bytes32",
          "name": "_disciplineId",
          "type": "bytes32"
        }
      ],
      "name": "getDiscipline",
      "outputs": [
        {
          "internalType": "string",
          "name": "programName",
          "type": "string"
        },
        {
          "internalType": "string",
          "name": "hour",
          "type": "string"
        },
        {
          "internalType": "uint256",
          "name": "credits",
          "type": "uint256"
        },
        {
          "internalType": "string",
          "name": "name",
          "type": "string"
        },
        {
          "internalType": "string",
          "name": "assessmentForm",
          "type": "string"
        },
        {
          "internalType": "uint256",
          "name": "semester",
          "type": "uint256"
        }
      ],
      "stateMutability": "view",
      "type": "function",
      "constant": true
    }
  ],
  "bytecode": "0x608060405234801561001057600080fd5b50610de1806100206000396000f3fe608060405234801561001057600080fd5b50600436106100415760003560e01c8063098477fa14610046578063875e3ce614610062578063e18a090f14610097575b600080fd5b610060600480360381019061005b919061081d565b6100cc565b005b61007c60048036038101906100779190610950565b6101b2565b60405161008e96959493929190610a0b565b60405180910390f35b6100b160048036038101906100ac9190610950565b61040e565b6040516100c396959493929190610a0b565b60405180910390f35b60008684836040516020016100e393929190610a88565b6040516020818303038152906040528051906020012090506040518060c0016040528088815260200187815260200186815260200185815260200184815260200183815250600080838152602001908152602001600020600082015181600001908161014f9190610cd9565b5060208201518160010190816101659190610cd9565b506040820151816002015560608201518160030190816101859190610cd9565b50608082015181600401908161019b9190610cd9565b5060a0820151816005015590505050505050505050565b60006020528060005260406000206000915090508060000180546101d590610afc565b80601f016020809104026020016040519081016040528092919081815260200182805461020190610afc565b801561024e5780601f106102235761010080835404028352916020019161024e565b820191906000526020600020905b81548152906001019060200180831161023157829003601f168201915b50505050509080600101805461026390610afc565b80601f016020809104026020016040519081016040528092919081815260200182805461028f90610afc565b80156102dc5780601f106102b1576101008083540402835291602001916102dc565b820191906000526020600020905b8154815290600101906020018083116102bf57829003601f168201915b5050505050908060020154908060030180546102f790610afc565b80601f016020809104026020016040519081016040528092919081815260200182805461032390610afc565b80156103705780601f1061034557610100808354040283529160200191610370565b820191906000526020600020905b81548152906001019060200180831161035357829003601f168201915b50505050509080600401805461038590610afc565b80601f01602080910402602001604051908101604052809291908181526020018280546103b190610afc565b80156103fe5780601f106103d3576101008083540402835291602001916103fe565b820191906000526020600020905b8154815290600101906020018083116103e157829003601f168201915b5050505050908060050154905086565b60608060006060806000806000808981526020019081526020016000209050806000018160010182600201548360030184600401856005015485805461045390610afc565b80601f016020809104026020016040519081016040528092919081815260200182805461047f90610afc565b80156104cc5780601f106104a1576101008083540402835291602001916104cc565b820191906000526020600020905b8154815290600101906020018083116104af57829003601f168201915b505050505095508480546104df90610afc565b80601f016020809104026020016040519081016040528092919081815260200182805461050b90610afc565b80156105585780601f1061052d57610100808354040283529160200191610558565b820191906000526020600020905b81548152906001019060200180831161053b57829003601f168201915b5050505050945082805461056b90610afc565b80601f016020809104026020016040519081016040528092919081815260200182805461059790610afc565b80156105e45780601f106105b9576101008083540402835291602001916105e4565b820191906000526020600020905b8154815290600101906020018083116105c757829003601f168201915b505050505092508180546105f790610afc565b80601f016020809104026020016040519081016040528092919081815260200182805461062390610afc565b80156106705780601f1061064557610100808354040283529160200191610670565b820191906000526020600020905b81548152906001019060200180831161065357829003601f168201915b505050505091509650965096509650965096505091939550919395565b6000604051905090565b600080fd5b600080fd5b600080fd5b600080fd5b6000601f19601f8301169050919050565b7f4e487b7100000000000000000000000000000000000000000000000000000000600052604160045260246000fd5b6106f4826106ab565b810181811067ffffffffffffffff82111715610713576107126106bc565b5b80604052505050565b600061072661068d565b905061073282826106eb565b919050565b600067ffffffffffffffff821115610752576107516106bc565b5b61075b826106ab565b9050602081019050919050565b82818337600083830152505050565b600061078a61078584610737565b61071c565b9050828152602081018484840111156107a6576107a56106a6565b5b6107b1848285610768565b509392505050565b600082601f8301126107ce576107cd6106a1565b5b81356107de848260208601610777565b91505092915050565b6000819050919050565b6107fa816107e7565b811461080557600080fd5b50565b600081359050610817816107f1565b92915050565b60008060008060008060c0878903121561083a57610839610697565b5b600087013567ffffffffffffffff8111156108585761085761069c565b5b61086489828a016107b9565b965050602087013567ffffffffffffffff8111156108855761088461069c565b5b61089189828a016107b9565b95505060406108a289828a01610808565b945050606087013567ffffffffffffffff8111156108c3576108c261069c565b5b6108cf89828a016107b9565b935050608087013567ffffffffffffffff8111156108f0576108ef61069c565b5b6108fc89828a016107b9565b92505060a061090d89828a01610808565b9150509295509295509295565b6000819050919050565b61092d8161091a565b811461093857600080fd5b50565b60008135905061094a81610924565b92915050565b60006020828403121561096657610965610697565b5b60006109748482850161093b565b91505092915050565b600081519050919050565b600082825260208201905092915050565b60005b838110156109b757808201518184015260208101905061099c565b60008484015250505050565b60006109ce8261097d565b6109d88185610988565b93506109e8818560208601610999565b6109f1816106ab565b840191505092915050565b610a05816107e7565b82525050565b600060c0820190508181036000830152610a2581896109c3565b90508181036020830152610a3981886109c3565b9050610a4860408301876109fc565b8181036060830152610a5a81866109c3565b90508181036080830152610a6e81856109c3565b9050610a7d60a08301846109fc565b979650505050505050565b60006060820190508181036000830152610aa281866109c3565b90508181036020830152610ab681856109c3565b9050610ac560408301846109fc565b949350505050565b7f4e487b7100000000000000000000000000000000000000000000000000000000600052602260045260246000fd5b60006002820490506001821680610b1457607f821691505b602082108103610b2757610b26610acd565b5b50919050565b60008190508160005260206000209050919050565b60006020601f8301049050919050565b600082821b905092915050565b600060088302610b8f7fffffffffffffffffffffffffffffffffffffffffffffffffffffffffffffffff82610b52565b610b998683610b52565b95508019841693508086168417925050509392505050565b6000819050919050565b6000610bd6610bd1610bcc846107e7565b610bb1565b6107e7565b9050919050565b6000819050919050565b610bf083610bbb565b610c04610bfc82610bdd565b848454610b5f565b825550505050565b600090565b610c19610c0c565b610c24818484610be7565b505050565b5b81811015610c4857610c3d600082610c11565b600181019050610c2a565b5050565b601f821115610c8d57610c5e81610b2d565b610c6784610b42565b81016020851015610c76578190505b610c8a610c8285610b42565b830182610c29565b50505b505050565b600082821c905092915050565b6000610cb060001984600802610c92565b1980831691505092915050565b6000610cc98383610c9f565b9150826002028217905092915050565b610ce28261097d565b67ffffffffffffffff811115610cfb57610cfa6106bc565b5b610d058254610afc565b610d10828285610c4c565b600060209050601f831160018114610d435760008415610d31578287015190505b610d3b8582610cbd565b865550610da3565b601f198416610d5186610b2d565b60005b82811015610d7957848901518255600182019150602085019450602081019050610d54565b86831015610d965784890151610d92601f891682610c9f565b8355505b6001600288020188555050505b50505050505056fea264697066735822122041bf6cc68a1959d5efcc1240a8fbc60bf1ada7780ef3ae028518c349daa93a0e64736f6c63430008120033",
  "immutableReferences": {},
  "source": "// SPDX-License-Identifier: MIT\r\npragma solidity ^0.8.18;\r\n\r\ncontract DisciplineContract {\r\n    \r\n\r\n    struct Discipline {\r\n        string programName;\r\n        string hour;\r\n        uint256 credits;\r\n        string name;\r\n        string assessmentForm;\r\n        uint256 semester;\r\n    }\r\n\r\n\r\n    mapping(bytes32 => Discipline) public disciplines;\r\n\r\n    function addDiscipline(\r\n        string memory _programName,\r\n        string memory _hour,\r\n        uint256 _credits,\r\n        string memory _name,\r\n        string memory _assessmentForm,\r\n        uint256 _semester\r\n    ) public {\r\n        bytes32 disciplineId = keccak256(abi.encode(_programName, _name, _semester));\r\n\r\n        disciplines[disciplineId] = Discipline({\r\n            programName: _programName,\r\n            hour: _hour,\r\n            credits: _credits,\r\n            name: _name,\r\n            assessmentForm: _assessmentForm,\r\n            semester: _semester\r\n        });\r\n    }\r\n\r\n    function getDiscipline(bytes32 _disciplineId) public view returns (\r\n        string memory programName,\r\n        string memory hour,\r\n        uint256 credits,\r\n        string memory name,\r\n        string memory assessmentForm,\r\n        uint256 semester\r\n    ) {\r\n        Discipline storage discipline = disciplines[_disciplineId];\r\n        return (\r\n            discipline.programName,\r\n            discipline.hour,\r\n            discipline.credits,\r\n            discipline.name,\r\n            discipline.assessmentForm,\r\n            discipline.semester\r\n        );\r\n    }\r\n}\r\n",
  "sourcePath": "D:\\4 \\ \\education\\contracts\\Discipline.sol",
  "compiler": {
    "name": "solc",
    "version": "0.8.18+commit.87f61d96.Emscripten.clang"
  },
  "schemaVersion": "3.4.16",
  "updatedAt": "2024-02-25T07:45:48.263Z",
  "networkType": "ethereum",
  "devdoc": {
    "kind": "dev",
    "methods": {},
    "version": 1
  },
  "userdoc": {
    "kind": "user",
    "methods": {},
    "version": 1
  }
}