{
  "contractName": "EducationalProgramContract",
  "abi": [
    {
      "inputs": [
        {
          "internalType": "uint256",
          "name": "",
          "type": "uint256"
        }
      ],
      "name": "educationalPrograms",
      "outputs": [
        {
          "internalType": "string",
          "name": "university",
          "type": "string"
        },
        {
          "internalType": "string",
          "name": "programName",
          "type": "string"
        },
        {
          "internalType": "string",
          "name": "faculty",
          "type": "string"
        },
        {
          "internalType": "string",
          "name": "specialization",
          "type": "string"
        }
      ],
      "stateMutability": "view",
      "type": "function"
    },
    {
      "inputs": [
        {
          "internalType": "string",
          "name": "_university",
          "type": "string"
        },
        {
          "internalType": "string",
          "name": "_programName",
          "type": "string"
        },
        {
          "internalType": "string",
          "name": "_faculty",
          "type": "string"
        },
        {
          "internalType": "string",
          "name": "_specialization",
          "type": "string"
        }
      ],
      "name": "addEducationalProgram",
      "outputs": [],
      "stateMutability": "nonpayable",
      "type": "function"
    },
    {
      "inputs": [
        {
          "internalType": "uint256",
          "name": "_programId",
          "type": "uint256"
        }
      ],
      "name": "getEducationalProgram",
      "outputs": [
        {
          "internalType": "string",
          "name": "_university",
          "type": "string"
        },
        {
          "internalType": "string",
          "name": "_programName",
          "type": "string"
        },
        {
          "internalType": "string",
          "name": "_faculty",
          "type": "string"
        },
        {
          "internalType": "string",
          "name": "_specialization",
          "type": "string"
        }
      ],
      "stateMutability": "view",
      "type": "function"
    }
  ],
  "bytecode": "0x608060405234801561001057600080fd5b50610cd5806100206000396000f3fe608060405234801561001057600080fd5b50600436106100415760003560e01c806364eaea571461004657806375897a8e146100795780638fecd6e214610095575b600080fd5b610060600480360381019061005b9190610697565b6100c8565b6040516100709493929190610754565b60405180910390f35b610093600480360381019061008e91906108ea565b610334565b005b6100af60048036038101906100aa9190610697565b6103fd565b6040516100bf9493929190610754565b60405180910390f35b6060806060806000806000878152602001908152602001600020905080600001816001018260020183600301838054610100906109f0565b80601f016020809104026020016040519081016040528092919081815260200182805461012c906109f0565b80156101795780601f1061014e57610100808354040283529160200191610179565b820191906000526020600020905b81548152906001019060200180831161015c57829003601f168201915b5050505050935082805461018c906109f0565b80601f01602080910402602001604051908101604052809291908181526020018280546101b8906109f0565b80156102055780601f106101da57610100808354040283529160200191610205565b820191906000526020600020905b8154815290600101906020018083116101e857829003601f168201915b50505050509250818054610218906109f0565b80601f0160208091040260200160405190810160405280929190818152602001828054610244906109f0565b80156102915780601f1061026657610100808354040283529160200191610291565b820191906000526020600020905b81548152906001019060200180831161027457829003601f168201915b505050505091508080546102a4906109f0565b80601f01602080910402602001604051908101604052809291908181526020018280546102d0906109f0565b801561031d5780601f106102f25761010080835404028352916020019161031d565b820191906000526020600020905b81548152906001019060200180831161030057829003601f168201915b505050505090509450945094509450509193509193565b60008484848460405160200161034d9493929190610754565b6040516020818303038152906040528051906020012060001c905060405180608001604052808681526020018581526020018481526020018381525060008083815260200190815260200160002060008201518160000190816103b09190610bcd565b5060208201518160010190816103c69190610bcd565b5060408201518160020190816103dc9190610bcd565b5060608201518160030190816103f29190610bcd565b509050505050505050565b6000602052806000526040600020600091509050806000018054610420906109f0565b80601f016020809104026020016040519081016040528092919081815260200182805461044c906109f0565b80156104995780601f1061046e57610100808354040283529160200191610499565b820191906000526020600020905b81548152906001019060200180831161047c57829003601f168201915b5050505050908060010180546104ae906109f0565b80601f01602080910402602001604051908101604052809291908181526020018280546104da906109f0565b80156105275780601f106104fc57610100808354040283529160200191610527565b820191906000526020600020905b81548152906001019060200180831161050a57829003601f168201915b50505050509080600201805461053c906109f0565b80601f0160208091040260200160405190810160405280929190818152602001828054610568906109f0565b80156105b55780601f1061058a576101008083540402835291602001916105b5565b820191906000526020600020905b81548152906001019060200180831161059857829003601f168201915b5050505050908060030180546105ca906109f0565b80601f01602080910402602001604051908101604052809291908181526020018280546105f6906109f0565b80156106435780601f1061061857610100808354040283529160200191610643565b820191906000526020600020905b81548152906001019060200180831161062657829003601f168201915b5050505050905084565b6000604051905090565b600080fd5b600080fd5b6000819050919050565b61067481610661565b811461067f57600080fd5b50565b6000813590506106918161066b565b92915050565b6000602082840312156106ad576106ac610657565b5b60006106bb84828501610682565b91505092915050565b600081519050919050565b600082825260208201905092915050565b60005b838110156106fe5780820151818401526020810190506106e3565b60008484015250505050565b6000601f19601f8301169050919050565b6000610726826106c4565b61073081856106cf565b93506107408185602086016106e0565b6107498161070a565b840191505092915050565b6000608082019050818103600083015261076e818761071b565b90508181036020830152610782818661071b565b90508181036040830152610796818561071b565b905081810360608301526107aa818461071b565b905095945050505050565b600080fd5b600080fd5b7f4e487b7100000000000000000000000000000000000000000000000000000000600052604160045260246000fd5b6107f78261070a565b810181811067ffffffffffffffff82111715610816576108156107bf565b5b80604052505050565b600061082961064d565b905061083582826107ee565b919050565b600067ffffffffffffffff821115610855576108546107bf565b5b61085e8261070a565b9050602081019050919050565b82818337600083830152505050565b600061088d6108888461083a565b61081f565b9050828152602081018484840111156108a9576108a86107ba565b5b6108b484828561086b565b509392505050565b600082601f8301126108d1576108d06107b5565b5b81356108e184826020860161087a565b91505092915050565b6000806000806080858703121561090457610903610657565b5b600085013567ffffffffffffffff8111156109225761092161065c565b5b61092e878288016108bc565b945050602085013567ffffffffffffffff81111561094f5761094e61065c565b5b61095b878288016108bc565b935050604085013567ffffffffffffffff81111561097c5761097b61065c565b5b610988878288016108bc565b925050606085013567ffffffffffffffff8111156109a9576109a861065c565b5b6109b5878288016108bc565b91505092959194509250565b7f4e487b7100000000000000000000000000000000000000000000000000000000600052602260045260246000fd5b60006002820490506001821680610a0857607f821691505b602082108103610a1b57610a1a6109c1565b5b50919050565b60008190508160005260206000209050919050565b60006020601f8301049050919050565b600082821b905092915050565b600060088302610a837fffffffffffffffffffffffffffffffffffffffffffffffffffffffffffffffff82610a46565b610a8d8683610a46565b95508019841693508086168417925050509392505050565b6000819050919050565b6000610aca610ac5610ac084610661565b610aa5565b610661565b9050919050565b6000819050919050565b610ae483610aaf565b610af8610af082610ad1565b848454610a53565b825550505050565b600090565b610b0d610b00565b610b18818484610adb565b505050565b5b81811015610b3c57610b31600082610b05565b600181019050610b1e565b5050565b601f821115610b8157610b5281610a21565b610b5b84610a36565b81016020851015610b6a578190505b610b7e610b7685610a36565b830182610b1d565b50505b505050565b600082821c905092915050565b6000610ba460001984600802610b86565b1980831691505092915050565b6000610bbd8383610b93565b9150826002028217905092915050565b610bd6826106c4565b67ffffffffffffffff811115610bef57610bee6107bf565b5b610bf982546109f0565b610c04828285610b40565b600060209050601f831160018114610c375760008415610c25578287015190505b610c2f8582610bb1565b865550610c97565b601f198416610c4586610a21565b60005b82811015610c6d57848901518255600182019150602085019450602081019050610c48565b86831015610c8a5784890151610c86601f891682610b93565b8355505b6001600288020188555050505b50505050505056fea2646970667358221220862a6e1982ecc9af7fd50a6e06dcc24ebc1ddfa85264f4c41c13074b847a482564736f6c63430008120033",
  "immutableReferences": {},
  "source": "// SPDX-License-Identifier: MIT\r\npragma solidity ^0.8.18;\r\n\r\ncontract EducationalProgramContract {\r\n    struct EducationalProgram {\r\n        string university;\r\n        string programName;\r\n        string faculty;\r\n        string specialization;\r\n    }\r\n    mapping(uint256 => EducationalProgram) public educationalPrograms;\r\n    \r\n    function addEducationalProgram(\r\n        string memory _university,\r\n        string memory _programName,\r\n        string memory _faculty,\r\n        string memory _specialization\r\n    ) public {\r\n        uint256 programId = uint256(keccak256(abi.encode(_university, _programName, _faculty, _specialization)));\r\n        \r\n        educationalPrograms[programId] = EducationalProgram({\r\n            university: _university,\r\n            programName: _programName,\r\n            faculty: _faculty,\r\n            specialization: _specialization\r\n        });\r\n    }\r\n    \r\n    function getEducationalProgram(uint256 _programId) public view returns (\r\n        string memory _university,\r\n        string memory _programName,\r\n        string memory _faculty,\r\n        string memory _specialization\r\n    ) {\r\n        EducationalProgram storage program = educationalPrograms[_programId];\r\n        return (program.university, program.programName, program.faculty, program.specialization);\r\n    }\r\n}",
  "sourcePath": "D:\\4 \\ \\education\\contracts\\educationalProgram.sol",
  "compiler": {
    "name": "solc",
    "version": "0.8.18+commit.87f61d96.Emscripten.clang"
  },
  "schemaVersion": "3.4.16",
  "updatedAt": "2024-02-25T07:45:36.853Z",
  "devdoc": {
    "kind": "dev",
    "methods": {},
    "version": 1
  },
  "userdoc": {
    "kind": "user",
    "methods": {},
    "version": 1
  }
}