{
  "contractName": "GroupContract",
  "abi": [
    {
      "inputs": [
        {
          "internalType": "string",
          "name": "",
          "type": "string"
        }
      ],
      "name": "groupInfo",
      "outputs": [
        {
          "internalType": "uint256",
          "name": "course",
          "type": "uint256"
        },
        {
          "internalType": "uint256",
          "name": "numberOfStudents",
          "type": "uint256"
        },
        {
          "internalType": "string",
          "name": "studyForm",
          "type": "string"
        }
      ],
      "stateMutability": "view",
      "type": "function"
    },
    {
      "inputs": [
        {
          "internalType": "string",
          "name": "_name",
          "type": "string"
        },
        {
          "internalType": "uint256",
          "name": "_course",
          "type": "uint256"
        },
        {
          "internalType": "uint256",
          "name": "_numberOfStudents",
          "type": "uint256"
        },
        {
          "internalType": "string",
          "name": "_studyForm",
          "type": "string"
        }
      ],
      "name": "addGroup",
      "outputs": [],
      "stateMutability": "nonpayable",
      "type": "function"
    },
    {
      "inputs": [
        {
          "internalType": "string",
          "name": "_name",
          "type": "string"
        }
      ],
      "name": "getGroup",
      "outputs": [
        {
          "internalType": "uint256",
          "name": "course",
          "type": "uint256"
        },
        {
          "internalType": "uint256",
          "name": "numberOfStudents",
          "type": "uint256"
        },
        {
          "internalType": "string",
          "name": "studyForm",
          "type": "string"
        }
      ],
      "stateMutability": "view",
      "type": "function"
    }
  ],
  "bytecode": "0x608060405234801561001057600080fd5b50610973806100206000396000f3fe608060405234801561001057600080fd5b50600436106100415760003560e01c80631026d62b14610046578063abef281e14610078578063b401eba1146100aa575b600080fd5b610060600480360381019061005b9190610422565b6100c6565b60405161006f93929190610503565b60405180910390f35b610092600480360381019061008d9190610422565b61018e565b6040516100a193929190610503565b60405180910390f35b6100c460048036038101906100bf919061056d565b61025c565b005b60008180516020810182018051848252602083016020850120818352809550505050505060009150905080600001549080600101549080600201805461010b9061063b565b80601f01602080910402602001604051908101604052809291908181526020018280546101379061063b565b80156101845780601f1061015957610100808354040283529160200191610184565b820191906000526020600020905b81548152906001019060200180831161016757829003601f168201915b5050505050905083565b6000806060600080856040516101a491906106a8565b9081526020016040518091039020905080600001548160010154826002018080546101ce9061063b565b80601f01602080910402602001604051908101604052809291908181526020018280546101fa9061063b565b80156102475780601f1061021c57610100808354040283529160200191610247565b820191906000526020600020905b81548152906001019060200180831161022a57829003601f168201915b50505050509050935093509350509193909250565b60405180606001604052808481526020018381526020018281525060008560405161028791906106a8565b9081526020016040518091039020600082015181600001556020820151816001015560408201518160020190816102be919061086b565b5090505050505050565b6000604051905090565b600080fd5b600080fd5b600080fd5b600080fd5b6000601f19601f8301169050919050565b7f4e487b7100000000000000000000000000000000000000000000000000000000600052604160045260246000fd5b61032f826102e6565b810181811067ffffffffffffffff8211171561034e5761034d6102f7565b5b80604052505050565b60006103616102c8565b905061036d8282610326565b919050565b600067ffffffffffffffff82111561038d5761038c6102f7565b5b610396826102e6565b9050602081019050919050565b82818337600083830152505050565b60006103c56103c084610372565b610357565b9050828152602081018484840111156103e1576103e06102e1565b5b6103ec8482856103a3565b509392505050565b600082601f830112610409576104086102dc565b5b81356104198482602086016103b2565b91505092915050565b600060208284031215610438576104376102d2565b5b600082013567ffffffffffffffff811115610456576104556102d7565b5b610462848285016103f4565b91505092915050565b6000819050919050565b61047e8161046b565b82525050565b600081519050919050565b600082825260208201905092915050565b60005b838110156104be5780820151818401526020810190506104a3565b60008484015250505050565b60006104d582610484565b6104df818561048f565b93506104ef8185602086016104a0565b6104f8816102e6565b840191505092915050565b60006060820190506105186000830186610475565b6105256020830185610475565b818103604083015261053781846104ca565b9050949350505050565b61054a8161046b565b811461055557600080fd5b50565b60008135905061056781610541565b92915050565b60008060008060808587031215610587576105866102d2565b5b600085013567ffffffffffffffff8111156105a5576105a46102d7565b5b6105b1878288016103f4565b94505060206105c287828801610558565b93505060406105d387828801610558565b925050606085013567ffffffffffffffff8111156105f4576105f36102d7565b5b610600878288016103f4565b91505092959194509250565b7f4e487b7100000000000000000000000000000000000000000000000000000000600052602260045260246000fd5b6000600282049050600182168061065357607f821691505b6020821081036106665761066561060c565b5b50919050565b600081905092915050565b600061068282610484565b61068c818561066c565b935061069c8185602086016104a0565b80840191505092915050565b60006106b48284610677565b915081905092915050565b60008190508160005260206000209050919050565b60006020601f8301049050919050565b600082821b905092915050565b6000600883026107217fffffffffffffffffffffffffffffffffffffffffffffffffffffffffffffffff826106e4565b61072b86836106e4565b95508019841693508086168417925050509392505050565b6000819050919050565b600061076861076361075e8461046b565b610743565b61046b565b9050919050565b6000819050919050565b6107828361074d565b61079661078e8261076f565b8484546106f1565b825550505050565b600090565b6107ab61079e565b6107b6818484610779565b505050565b5b818110156107da576107cf6000826107a3565b6001810190506107bc565b5050565b601f82111561081f576107f0816106bf565b6107f9846106d4565b81016020851015610808578190505b61081c610814856106d4565b8301826107bb565b50505b505050565b600082821c905092915050565b600061084260001984600802610824565b1980831691505092915050565b600061085b8383610831565b9150826002028217905092915050565b61087482610484565b67ffffffffffffffff81111561088d5761088c6102f7565b5b610897825461063b565b6108a28282856107de565b600060209050601f8311600181146108d557600084156108c3578287015190505b6108cd858261084f565b865550610935565b601f1984166108e3866106bf565b60005b8281101561090b578489015182556001820191506020850194506020810190506108e6565b868310156109285784890151610924601f891682610831565b8355505b6001600288020188555050505b50505050505056fea2646970667358221220066fb95b539f621ac47bcfafce21677cb8b1738e40a5dda65e3f01f51934c42464736f6c63430008120033",
  "immutableReferences": {},
  "source": "// SPDX-License-Identifier: MIT\r\npragma solidity ^0.8.18;\r\n\r\ncontract GroupContract {\r\n    struct GroupInfo {\r\n        uint256 course;\r\n        uint256 numberOfStudents;\r\n        string studyForm;\r\n    }\r\n    mapping(string => GroupInfo) public groupInfo;\r\n    function addGroup(\r\n        string memory _name,\r\n        uint256 _course,\r\n        uint256 _numberOfStudents,\r\n        string memory _studyForm\r\n    ) public {\r\n        groupInfo[_name] = GroupInfo({\r\n            course: _course,\r\n            numberOfStudents: _numberOfStudents,\r\n            studyForm: _studyForm\r\n        });\r\n    }\r\n    function getGroup(string memory _name) public view returns (\r\n        uint256 course,\r\n        uint256 numberOfStudents,\r\n        string memory studyForm\r\n    ) {\r\n        GroupInfo storage group = groupInfo[_name];\r\n        return (\r\n            group.course,\r\n            group.numberOfStudents,\r\n            group.studyForm\r\n        );\r\n    }\r\n}\r\n",
  "sourcePath": "D:\\4 \\ \\education\\contracts\\Group.sol",
  "compiler": {
    "name": "solc",
    "version": "0.8.18+commit.87f61d96.Emscripten.clang"
  },
  "schemaVersion": "3.4.16",
  "updatedAt": "2024-02-25T07:45:36.810Z",
  "devdoc": {
    "kind": "dev",
    "methods": {},
    "version": 1
  },
  "userdoc": {
    "kind": "user",
    "methods": {},
    "version": 1
  }
}