{
  "contractName": "ResultsUPDContract",
  "abi": [
    {
      "inputs": [],
      "name": "results",
      "outputs": [
        {
          "internalType": "uint256",
          "name": "points",
          "type": "uint256"
        },
        {
          "internalType": "string",
          "name": "ects",
          "type": "string"
        }
      ],
      "stateMutability": "view",
      "type": "function"
    },
    {
      "inputs": [
        {
          "internalType": "uint256",
          "name": "_points",
          "type": "uint256"
        },
        {
          "internalType": "string",
          "name": "_ects",
          "type": "string"
        }
      ],
      "name": "addResults",
      "outputs": [],
      "stateMutability": "nonpayable",
      "type": "function"
    },
    {
      "inputs": [],
      "name": "getResults",
      "outputs": [
        {
          "internalType": "uint256",
          "name": "points",
          "type": "uint256"
        },
        {
          "internalType": "string",
          "name": "ects",
          "type": "string"
        }
      ],
      "stateMutability": "view",
      "type": "function"
    }
  ],
  "bytecode": "0x608060405234801561001057600080fd5b506107d7806100206000396000f3fe608060405234801561001057600080fd5b50600436106100415760003560e01c80634717f97c14610046578063a48bdb7c14610065578063d0a0552214610084575b600080fd5b61004e6100a0565b60405161005c9291906102c2565b60405180910390f35b61006d610142565b60405161007b9291906102c2565b60405180910390f35b61009e60048036038101906100999190610467565b6101dc565b005b60006060600080015460006001018080546100ba906104f2565b80601f01602080910402602001604051908101604052809291908181526020018280546100e6906104f2565b80156101335780601f1061010857610100808354040283529160200191610133565b820191906000526020600020905b81548152906001019060200180831161011657829003601f168201915b50505050509050915091509091565b6000806000015490806001018054610159906104f2565b80601f0160208091040260200160405190810160405280929190818152602001828054610185906104f2565b80156101d25780601f106101a7576101008083540402835291602001916101d2565b820191906000526020600020905b8154815290600101906020018083116101b557829003601f168201915b5050505050905082565b6040518060400160405280838152602001828152506000808201518160000155602082015181600101908161021191906106cf565b509050505050565b6000819050919050565b61022c81610219565b82525050565b600081519050919050565b600082825260208201905092915050565b60005b8381101561026c578082015181840152602081019050610251565b60008484015250505050565b6000601f19601f8301169050919050565b600061029482610232565b61029e818561023d565b93506102ae81856020860161024e565b6102b781610278565b840191505092915050565b60006040820190506102d76000830185610223565b81810360208301526102e98184610289565b90509392505050565b6000604051905090565b600080fd5b600080fd5b61030f81610219565b811461031a57600080fd5b50565b60008135905061032c81610306565b92915050565b600080fd5b600080fd5b7f4e487b7100000000000000000000000000000000000000000000000000000000600052604160045260246000fd5b61037482610278565b810181811067ffffffffffffffff821117156103935761039261033c565b5b80604052505050565b60006103a66102f2565b90506103b2828261036b565b919050565b600067ffffffffffffffff8211156103d2576103d161033c565b5b6103db82610278565b9050602081019050919050565b82818337600083830152505050565b600061040a610405846103b7565b61039c565b90508281526020810184848401111561042657610425610337565b5b6104318482856103e8565b509392505050565b600082601f83011261044e5761044d610332565b5b813561045e8482602086016103f7565b91505092915050565b6000806040838503121561047e5761047d6102fc565b5b600061048c8582860161031d565b925050602083013567ffffffffffffffff8111156104ad576104ac610301565b5b6104b985828601610439565b9150509250929050565b7f4e487b7100000000000000000000000000000000000000000000000000000000600052602260045260246000fd5b6000600282049050600182168061050a57607f821691505b60208210810361051d5761051c6104c3565b5b50919050565b60008190508160005260206000209050919050565b60006020601f8301049050919050565b600082821b905092915050565b6000600883026105857fffffffffffffffffffffffffffffffffffffffffffffffffffffffffffffffff82610548565b61058f8683610548565b95508019841693508086168417925050509392505050565b6000819050919050565b60006105cc6105c76105c284610219565b6105a7565b610219565b9050919050565b6000819050919050565b6105e6836105b1565b6105fa6105f2826105d3565b848454610555565b825550505050565b600090565b61060f610602565b61061a8184846105dd565b505050565b5b8181101561063e57610633600082610607565b600181019050610620565b5050565b601f8211156106835761065481610523565b61065d84610538565b8101602085101561066c578190505b61068061067885610538565b83018261061f565b50505b505050565b600082821c905092915050565b60006106a660001984600802610688565b1980831691505092915050565b60006106bf8383610695565b9150826002028217905092915050565b6106d882610232565b67ffffffffffffffff8111156106f1576106f061033c565b5b6106fb82546104f2565b610706828285610642565b600060209050601f8311600181146107395760008415610727578287015190505b61073185826106b3565b865550610799565b601f19841661074786610523565b60005b8281101561076f5784890151825560018201915060208501945060208101905061074a565b8683101561078c5784890151610788601f891682610695565b8355505b6001600288020188555050505b50505050505056fea26469706673582212207e6a01352af3edf7d7af18633f5a73699b5f2a437a7faf4cfad67d513c266f3764736f6c63430008120033",
  "immutableReferences": {},
  "source": "// SPDX-License-Identifier: MIT\r\npragma solidity ^0.8.18;\r\n\r\ncontract ResultsUPDContract {\r\n    struct Results {\r\n        uint256 points;\r\n        string ects;\r\n    }\r\n\r\n    Results public results;\r\n\r\n    function addResults(uint256 _points, string memory _ects) public {\r\n        results = Results({\r\n            points: _points,\r\n            ects: _ects\r\n        });\r\n    }\r\n\r\n    function getResults() public view returns (uint256 points, string memory ects) {\r\n        return (results.points, results.ects);\r\n    }\r\n}\r\n",
  "sourcePath": "D:\\4 \\ \\education\\contracts\\ResultsUpdate.sol",
  "compiler": {
    "name": "solc",
    "version": "0.8.18+commit.87f61d96.Emscripten.clang"
  },
  "schemaVersion": "3.4.16",
  "updatedAt": "2024-02-25T07:45:36.832Z",
  "devdoc": {
    "kind": "dev",
    "methods": {},
    "version": 1
  },
  "userdoc": {
    "kind": "user",
    "methods": {},
    "version": 1
  }
}